:100000000C942A000C9460000C9460000C94600026
:100010000C9460000C9460000C9460000C946000E0
:100020000C9460000C9460000C9460000C946000D0
:100030000C9460000C9460000C9460000C946000C0
:100040000C9460000C9460000C9460000C946000B0
:100050000C94600011241FBECFE5D8E0DEBFCDBFF9
:0C0060000E9436000C944B00F894FFCF77
:10006C0081B3816081BB0E9456002FE38DE093E049
:10007C00215080409040E1F700C0000092B381E035
:0A008C00892782BB0E945C00EECFC2
:10009600EC010E9465000E946400CE010E94660089
:0600A600CE010E94620081
:0C00AC008AE081BD81B58E7F81BD089582
:0800B80088E181BD11BC08952F
:0400C0000C9400009C
:0400C4000E94340062
:0200C800089599
:0200CA00089597
:0200CC00089595
:00000001FF
